:100000000C945F000C947E030C94AB030C9487005B
:100010000C9487000C9487000C9487000C942203A6
:100020000C9487000C9487000C9487000C94870034
:100030000C9487000C9487000C9487000C94870024
:100040000C94D8030C9487000C9427010C94610144
:100050000C9487000C9487000C9487000C94870004
:100060000C9487000C948700020000000700020136
:10007000000003040600000000000000000102046C
:10008000081020408001020408102001020408101A
:100090002004040404040404040202020202020311
:1000A000030303030300000000250028002B0000C9
:1000B000000000240027002A00009C012C021124CB
:1000C0001FBECFEFD8E0DEBFCDBF11E0A0E0B1E0B2
:1000D000E8ECF9E002C005900D92A831B107D9F71C
:1000E00021E0A8E1B1E001C01D92AC3DB207E1F70B
:1000F00010E0CEEBD0E004C02297FE010E94DE04A7
:10010000CA3BD107C9F70E9489000C94E2040C9401
:10011000000061E085E00E944B0460E085E00E9401
:10012000840461E085E00E948404F7CFFC0124850B
:100130003585F901E05CFF4F808191813296208105
:100140003181821B930B8F7399270895FC0184855D
:100150009585FC01E05CFF4F408151813296208102
:1001600031814217530741F00190F081E02DE80FF3
:10017000F91F808190E008958FEF9FEF0895FC01B3
:1001800084859585FC01E05CFF4F4081518132966A
:10019000208131814217530779F0A081B181A80FE6
:1001A000B91F8C91208131812F5F3F4F2F733327EF
:1001B0003183208390E008958FEF9FEF0895FC0135
:1001C00081A1882329F0A489B5898C9186FFFBCF72
:1001D00011A20895CF93DF93FC0126853785D901BD
:1001E000A05CBF4F8D919C91119701968F739927B9
:1001F000E901CE5BDF4F4881598184179507D9F318
:100200000D90BC91A02DA20FB31F6C93A685B7854E
:10021000A05CBF4F11969C938E93A689B7892C91B1
:1002200081E090E0078C02C0880F991F0A94E2F7E2
:10023000282B2C9381E081A30488F589E02D80810F
:100240008064808381E090E0DF91CF9108951F92D8
:100250000F920FB60F9211242F933F934F938F93CA
:100260009F93EF93FF938091C00082FD1CC040914B
:10027000C6008091BE019091BF0101968F739927AE
:100280002091C0013091C1018217930771F0E09174
:10029000BE01F091BF01E258FE4F40839093BF0131
:1002A0008093BE0102C08091C600FF91EF919F91A3
:1002B0008F914F913F912F910F900FBE0F901F90F4
:1002C00018951F920F920FB60F9211242F933F9300
:1002D0008F939F93EF93FF9320917A0130917B014D
:1002E00080917C0190917D012817390731F480912C
:1002F000C1008F7D8093C10014C0E0917C01F0911A
:100300007D01E65CFE4F208180917C0190917D0112
:1003100001968F73992790937D0180937C012093A0
:10032000C600FF91EF919F918F913F912F910F9078
:100330000FBE0F901F90189510921B0110921A017A
:1003400088EE93E0A0E0B0E080931C0190931D0143
:10035000A0931E01B0931F0185E091E090931901D5
:10036000809318018EE791E09093250180932401FA
:100370008AE391E0909327018093260185EC90E039
:10038000909329018093280184EC90E090932B01B5
:1003900080932A0180EC90E090932D0180932C01B2
:1003A00081EC90E090932F0180932E0182EC90E0FD
:1003B000909331018093300186EC90E0909333016B
:1003C0008093320184E08093340183E0809335018F
:1003D00087E08093360185E08093370181E0809348
:1003E00038010895AF92BF92CF92DF92EF92FF92C1
:1003F0000F931F93CF93DF936C017B01C0E0D0E09C
:1004000000E010E0F601EC0FFD1F4AE050E06281D1
:10041000C7010E94E6025C016EE2C7010E947902F8
:100420008A0D9B1D080F191F2196C330D10551F766
:100430004AE050E0F6016581C7010E94E602800FA4
:10044000911FDF91CF911F910F91FF90EF90DF905F
:10045000CF90BF90AF90089585E191E09093C30154
:100460008093C2011092C4011092C5011092C6017E
:100470001092C7010895CF92DF92EF92FF920F93EF
:100480001F93CF93DF936C017A01EB01E60EF71E09
:1004900000E010E0CE15DF0561F06991D601ED9125
:1004A000FC910190F081E02DC6010995080F191FFC
:1004B000F1CFC801DF91CF911F910F91FF90EF9085
:1004C000DF90CF9008956115710581F0DB010D90EB
:1004D0000020E9F7AD0141505109461B570BDC01E3
:1004E000ED91FC910280F381E02D099480E090E091
:1004F0000895DC01ED91FC910190F081E02D0994CB
:100500008F929F92AF92BF92CF92DF92EF92FF9223
:100510000F931F93CF93DF93CDB7DEB7A1970FB69D
:10052000F894DEBF0FBECDBF7C01C42EE52FCB01FA
:10053000D22E19A221E02D1510F02AE0D22E8E0124
:100540000F5D1F4F8D2C912CA12CB12C6C2D7E2F6B
:10055000A50194010E94BA048C2DD29E8019112409
:10056000015011098A3010F4805D01C0895CF801E6
:100570008083211531054105510521F0C22EE32F5D
:10058000CA01E4CFB801C7010E946302A1960FB669
:10059000F894DEBF0FBECDBFDF91CF911F910F91B9
:1005A000FF90EF90DF90CF90BF90AF909F908F9093
:1005B00008952115310541F4DC01ED91FC91019084
:1005C000F081E02D642F09940C9480029A01462F4B
:1005D00050E060E070E00C94D902813039F018F0FE
:1005E000823051F0089510926E00089580916F004E
:1005F0008D7F80936F000895809170008D7F809330
:10060000700081E08093B0008091B100887F8460A9
:100610008093B1001092B3000895CF93C82F8091BA
:1006200000018C1307C0E8E6F0E084919FEF9093FF
:10063000000101C08FEF0E94ED0260E08C2FCF918E
:100640000C9484041F920F920FB60F9211242F93D3
:100650003F934F935F936F937F938F939F93AF934A
:10066000BF93EF93FF938091CB019091CC01A09128
:10067000CD01B091CE01892B8A2B8B2B51F190911A
:10068000C801E091C901F091CA0180818927808366
:100690008091CB019091CC01A091CD01B091CE0180
:1006A000181619061A061B06C4F48091CB01909106
:1006B000CC01A091CD01B091CE010197A109B10962
:1006C0008093CB019093CC01A093CD01B093CE0148
:1006D00004C0809100010E940D03FF91EF91BF9132
:1006E000AF919F918F917F916F915F914F913F91CA
:1006F0002F910F900FBE0F901F9018951F920F9281
:100700000FB60F9211242F933F934F935F936F93E4
:100710007F938F939F93AF93BF93EF93FF938091BA
:10072000CF019091D001892B29F0E091CF01F09178
:10073000D0010995FF91EF91BF91AF919F918F915A
:100740007F916F915F914F913F912F910F900FBECD
:100750000F901F9018951F920F920FB60F921124B1
:100760002F933F934F935F936F937F938F939F93B9
:10077000AF93BF93EF93FF938091D1019091D201FA
:10078000892B29F0E091D101F091D2010995FF91D7
:10079000EF91BF91AF919F918F917F916F915F91F9
:1007A0004F913F912F910F900FBE0F901F90189572
:1007B0001F920F920FB60F9211242F933F938F9396
:1007C0009F93AF93BF938091D4019091D501A09155
:1007D000D601B091D7013091D30123E0230F2D37FB
:1007E00020F40196A11DB11D05C026E8230F029635
:1007F000A11DB11D2093D3018093D4019093D50105
:10080000A093D601B093D7018091D8019091D901DE
:10081000A091DA01B091DB010196A11DB11D809379
:10082000D8019093D901A093DA01B093DB01BF9175
:10083000AF919F918F913F912F910F900FBE0F908D
:100840001F901895833081F028F4813099F0823020
:10085000A1F008958630A9F08730B9F08430D1F442
:10086000809180008F7D03C0809180008F7780937E
:100870008000089584B58F7702C084B58F7D84BDD4
:1008800008958091B0008F7703C08091B0008F7D74
:100890008093B0000895CF93DF9390E0FC01E3587C
:1008A000FF4F2491FC01EF56FF4F8491882349F1BB
:1008B00090E0880F991FFC01E155FF4FA591B4917D
:1008C0008B559F4FFC01C591D4919FB7611108C012
:1008D000F8948C91209582238C93888182230AC07E
:1008E000623051F4F8948C91322F309583238C939D
:1008F0008881822B888304C0F8948C91822B8C93FE
:100900009FBFDF91CF9108950F931F93CF93DF93F4
:100910001F92CDB7DEB7282F30E0F901E759FF4F1E
:100920008491F901E358FF4F1491F901EF56FF4FFD
:1009300004910023C9F0882321F069830E942204D6
:100940006981E02FF0E0EE0FFF1FEB55FF4FA591FF
:10095000B4919FB7F8948C91611103C010958123D5
:1009600001C0812B8C939FBF0F90DF91CF911F917E
:100970000F910895A1E21A2EAA1BBB1BFD010DC009
:10098000AA1FBB1FEE1FFF1FA217B307E407F5073F
:1009900020F0A21BB30BE40BF50B661F771F881F1B
:1009A000991F1A9469F760957095809590959B01B1
:1009B000AC01BD01CF010895EE0FFF1F0590F4912A
:0809C000E02D0994F894FFCF2B
:1009C800FF00000000EA003B029600BF00A600DF1F
:0809D8000000000000F2010024
:00000001FF
